S00C0000546573742E7372656378
S11300007AC0000097C0000095C0000093C00000B3
S113001091C000008FC000008DC000008BC00000A4
S113002089C0000087C0000085C0000083C00000B4
S113003081C000007FC000007DC000007BC00000C4
S113004079C0000077C0000075C0000073C00000D4
S113005071C000006FC000006DC000006BC00000E4
S113006069C0000067C0000065C0000063C00000F4
S113007061C000005FC000005DC000005BC0000004
S113008059C0000057C0000055C0000053C0000014
S113009051C000004FC000004DC000004BC0000024
S11300A049C0000047C0000045C0000043C0000034
S11300B041C000003FC000003DC000003BC0000044
S11300C039C0000037C0000035C0000033C0000054
S11300D031C000002FC000002DC000002BC0000064
S11300E029C00000560159015C015F0162016501EC
S11300F068016B016E0111241FBECFEFD1E2DEBF98
S1130100CDBF00E00CBF12E0A0E0B2E0E6E4FAE00C
S113011000E00BBF02C007900D92AA33B107D9F7D4
S113012022E0AAE3B2E001C01D92A234B207E1F7D3
S113013061D287C465CFFC010FB6F89460913E028A
S113014070913F0280914002909141020FBE30971E
S113015021F060837183828393830895169A00004B
S113016016980895CF93DF93D82F662311F0149A2D
S113017001C01498159881B18F6081B9C2B1C07F54
S11301808D2F82958F708C2B82B9E8DFDF70DC2B8A
S1130190D2B9E4DFCF60C2B9DF91CF91089588234B
S11301A011F0149A01C01498159A81B1807F81B915
S11301B0169A000090B116980000169A000020B11B
S11301C02F70892F8295807F1698822B089580E066
S11301D0E6DF8823E4F300C000C080E0E0CF0895A8
S11301E0CF93C82FF4DF60E08C2FBCDFCF9108954C
S11301F081E0F6CF0895CF93C82FE9DFCA3041F4E8
S1130200803410F080E001C080E48058E9DF03C04E
S113021061E08C2FA7DFCF910895CF93DF93EC019A
S11302202196FC018081882321F0E5DF89918111E9
S1130230FCCFDF91CF910895CF93C82F81B18F6701
S113024081B98FE99FE00197F1F700C00000119A8E
S1130250109A84DF81EE94E00197F1F700C000006A
S11302607DDF95E19A95F1F7000078DF85E18A95C5
S1130270F1F70000109872DF95E19A95F1F700000C
S113028088E2AEDF88E0ACDFB3DF86E0A9DF8C2F45
S1130290A7DFCF9108952FEF27B98930910500F595
S11302A0FC018827EE58FF4F8F4FDCC18FEF88B9D0
S11302B008958FE788B908958FE388B908958FE189
S11302C088B908958FE088B9089587E088B90895BA
S11302D083E088B9089581E088B9089518B808952D
S11302E08FEF85B90895FC0190E080E2DF01A90F4A
S11302F0B11D8C939F5F9131C9F780E2DF01A90F93
S1130300B11D8C939F5F9232C9F78AE0808B11A252
S11303100895EF92FF920F931F93CF93DF938C0175
S1130320DC0180E0C4E6D7E06FE070E00F2EFFE070
S1130330FF2EF02DED91FD91309761F09181AB018D
S1130340491B51092C2F30E04217530724F4CF2DB9
S1130350C91B01C0D82F8F5F863061F707D32C2FBC
S113036030E08370992702968217930714F4D630ED
S113037010F0C436E1F483E090E090D17C01F6D231
S113038081709078992324F401978E6F9F6F019662
S1130390F70180838FE081838AE582838D2F90E04B
S11303A0880F991FF801E80FF91FF182E082DF91AD
S11303B0CF911F910F91FF90EF9008957F928F92AC
S11303C09F92AF92BF92CF92DF92EF92FF920F93E0
S11303D01F93CF93DF934C016B01742E5901EC01F1
S11303E07C018CE0E80EF11C8E01E881F9813097E4
S11303F019F1818181508183E881F98181818111A1
S11304001BC08081871111C0F601808181508083D7
S113041081110BC0F40180819181D8D1F401118242
S1130420108282E0F50180830BC0F8018081918104
S1130430CDD1F801118210822296CE15DF05A1F6E6
S1130440DF91CF911F910F91FF90EF90DF90CF90AC
S1130450BF90AF909F908F907F9008956F927F92FE
S11304608F929F92AF92BF92CF92DF92EF92FF92C0
S11304700F931F93CF93DF93CDB7DEB72D970FB6AE
S1130480F894DEBF0FBECDBF6C0185E0898382E2A4
S113049090E004D18C011B821A821D821C821F826F
S11304A01E82198618861B861A861D861C86992428
S11304B09394A12C612C772473940F2EF1E1BF2E19
S11304C0F02D0F2EFEE38F2EF02D7E012EE0E20E96
S11304D0F11CC80108DF89B18F3721F481E098123B
S11304E001C0962C89B18F3B19F4911001C0972C4F
S11304F03DD22A2D30E081709078992324F401971D
S11305008E6F9F6F0196BC016D5F7F4FC90197D0BD
S1130510892B59F49601492DBE016F5F7F4FCE019F
S113052002964CDFCE010296F4DE9B9C802D1124B2
S1130530F801E80FF11D8082DE011296ED91FD9124
S1130540309751F09281208181812B9D800D11245F
S1130550F801E80FF11D9083AE15BF0579F748DE69
S1130560C8015BDE898190E096DE9FE32DE083E0A5
S1130570915020408040E1F700C00000A39489819D
S11305808111A7CF2D960FB6F894DEBF0FBECDBF55
S1130590DF91CF911F910F91FF90EF90DF90CF905B
S11305A0BF90AF909F908F907F906F900895CF935E
S11305B0DF93EC011DDE8AE092E02FDE89B18F37F4
S11305C019F089B18F3BD1F781E08883DF91CF9116
S11305D00895CF93DF93EC010BDE8FE192E01DDEF3
S11305E089B18F3719F089B18F3BD1F71882DF9128
S11305F0CF910895CF93DF931F92CDB7DEB71AB88A
S11306008FE01ADE198280E090E095DDB2D1898115
S1130610813041F018F0823049F00CC0CE010196CF
S1130620C6DFF5CFCE01019619DFF1CFCE010196D9
S1130630D0DFEDCFDDDD89E292E0EFDDE8CF97FB9F
S1130640072E16F4009406D077FD08D013D007FCCB
S113065005D03EF4909581959F4F089570956195CE
S11306607F4F0895EE0FFF1F881F8BBF0790F691F1
S1130670E02D1994AA1BBB1B51E107C0AA1FBB1F85
S1130680A617B70710F0A61BB70B881F991F5A951A
S1130690A9F780959095BC01CD0108950F931F9300
S11306A0CF93DF938230910510F482E090E0E091E3
S11306B03C02F0913D0220E030E0A0E0B0E0309751
S11306C019F1408151810281138148175907C8F0FB
S11306D08417950769F4109731F012960C931297CA
S11306E013961C9327C000933C0210933D0222C032
S11306F02115310519F04217530718F49A01BD0169
S1130700EF01DF01F801DBCF21153105F9F0281BDA
S1130710390B2430310580F48A819B816115710580
S113072021F0FB019383828304C090933D02809364
S11307303C02FE01329644C0FE01E20FF31F819396
S1130740919322503109398328833AC020913A0287
S113075030913B02232B41F4209102023091030299
S113076030933B0220933A0220910002309101021F
S11307702115310541F42DB73EB740910402509143
S11307800502241B350BE0913A02F0913B02E2177B
S1130790F307A0F42E1B3F0B2817390778F0AC01A0
S11307A04E5F5F4F2417350748F04E0F5F1F50937D
S11307B03B0240933A028193919302C0E0E0F0E05F
S11307C0CF01DF91CF911F910F910895CF93DF93C4
S11307D0009709F481C0FC01329713821282A09120
S11307E03C02B0913D02109781F420813181820F47
S11307F0931F20913A0230913B022817390751F593
S1130800F0933B02E0933A0267C0ED0120E030E050
S1130810CE17DF0740F44A815B819E0141155105E3
S1130820F1F0EA01F5CFD383C28340815181840F73
S1130830951FC817D90759F488819981840F951F8A
S11308400296918380838A819B819383828321157D
S1130850310529F4F0933D02E0933C023DC0E901E7
S1130860FB83EA8349915991C40FD51FEC17FD0707
S113087061F480819181840F951F0296E901998327
S11308808883828193819B838A83E0E0F0E01296DF
S11308908D919C911397009719F0FD01DC01F7CF1E
S11308A08D919C9111979D012E5F3F4F820F931F55
S11308B020913A0230913B022817390769F43097A6
S11308C029F410923D0210923C0202C0138212825B
S11308D0B0933B02A0933A02DF91CF9108958F9297
S11308E09F92AF92BF92CF92DF92EF92FF92CF93FB
S11308F0DF93EC01688179818A819B81611571059F
S11309008105910521F464E279ED8BE597E02DE111
S113091033EF41E050E038D049015A019B01AC016A
S1130920A7EAB1E44DD06B017C01ACEEB4EFA501B4
S1130930940152D0DC01CB018C0D9D1DAE1DBF1D59
S1130940B7FF03C00197A109B04888839983AA839C
S1130950BB839F77DF91CF91FF90EF90DF90CF9093
S1130960BF90AF909F908F900895B9CF86E092E0AA
S1130970B6CFA0E0B0E08093060290930702A09364
S11309800802B09309020895052E97FB16F400940B
S11309900FD057FD05D024D007FC02D046F408C080
S11309A050954095309521953F4F4F4F5F4F089597
S11309B090958095709561957F4F8F4F9F4F0895C7
S11309C031D0A59F900DB49F900DA49F800D911DD3
S11309D011240895B7FFF4CFF3DF821B930B08951E
S11309E0A1E21A2EAA1BBB1BFD010DC0AA1FBB1F2F
S11309F0EE1FFF1FA217B307E407F50720F0A21BA1
S1130A00B30BE40BF50B661F771F881F991F1A940D
S1130A1069F760957095809590959B01AC01BD0137
S1130A20CF010895A29FB001B39FC001A39F700D91
S1130A30811D1124911DB29F700D811D1124911DE2
S1090A400895F894FFCFB5
S1130A46000042022000010000005072657373200A
S1130A5661204B6579200A546F20504C4159004758
S1130A66616D65204F76657200556E7265616368C7
S10D0A7661626C6520636F64650023
S9030000FC
